:100000000C942A000C9448000C9434000C94340096
:100010000C9434000C9434000C9434000C94340090
:100020000C9434000C9434000C9434000C94340080
:100030000C9434000C9434000C9434000C94340070
:100040000C9434000C9434000C9434000C94340060
:100050000C94340011241FBECFE5D8E0DEBFCDBF25
:100060000E9436000C948E000C9400008F9A979892
:10007000789485B7836085BF8BB780648BBFFFCFD3
:10008000789485B7836085BF8BB780648BBF0895F4
:100090001F920F920FB60F9211248F9382B3805844
:1000A00082BB8F910F900FBE0F901F90189520E08C
:1000B00030E061E070E048EC50E0CB01022E02C07D
:1000C000880F991F0A94E2F78BBB88EE93E0FA0140
:1000D0003197F1F70197D9F72F5F3F4F283031055E
:1000E00061F7089527E030E061E070E048EC50E00F
:1000F000CB01022E02C0880F991F0A94E2F78BBB36
:1001000088EE93E0FA013197F1F70197D9F7215082
:1001100030408FEF2F3F380759F70895F894FFCFFD
:00000001FF
