:100000000C942A000C9434000C9434000C943400AA
:100010000C9434000C9434000C9434000C94340090
:100020000C9434000C9434000C9434000C94340080
:100030000C9434000C9434000C9434000C94340070
:100040000C9434000C9434000C9434000C94340060
:100050000C94340011241FBECFE5D8E0DEBFCDBF25
:100060000E943F000C948D000C9400009FEF92BB07
:1000700065BB82BB80E29EE40197F1F708950F9380
:100080001F9384B38FEF84BB81B38F6081BB40E04B
:1000900050E03FEFF2E00EEF60E27EE41DEFBBEFD9
:1000A000E7E0A4E032BBF5BB02BBCB010197F1F75F
:1000B00032BB15BA12BBCB010197F1F732BB45BB7E
:1000C000B2BBCB010197F1F74430510599F432BB33
:1000D00015BAE2BBCB010197F1F732BBF5BBE2BB2E
:1000E000CB010197F1F732BBA5BBE2BBCB01019776
:1000F000F1F70AC020E032BB25BBE2BBCB01019780
:10010000F1F72E5F2A30B9F74F5F5F4F4530510549
:0E0110000CF4C8CF40E050E0C5CFF894FFCF0C
:00000001FF
