S01A000054696D657242617365644C4544426C696E6B2E7372656365
S11300000C942A000C943C000C943C000C943C008E
S11300100C943C000C943C000C943C000C943C006C
S11300200C943C000C9448000C943C000C943C0050
S11300300C943C000C943C000C943C000C943C004C
S11300400C943C000C943C000C943C000C943C003C
S11300500C943C0011241FBECFE5D8E0DEBFCDBF19
S113006020E0A0E6B0E001C01D92A236B207E1F79D
S11300700E943E000C946A000C940000A09AA89878
S11300808EB581608EBD789489B7846089BFFFCFB7
S11300901F920F920FB60F9211248F939F9380910A
S11300A060009091610001969093610080936000DC
S11300B08C34910544F095B381E0892785BB109277
S11300C06100109260009F918F910F900FBE0F906E
S10B00D01F901895F894FFCF6E
S9030000FC
