:100000000C942A000C9434000C9434000C943400AA
:100010000C9434000C9434000C9434000C94340090
:100020000C9434000C9434000C9434000C94340080
:100030000C9434000C9434000C9434000C94340070
:100040000C9434000C9434000C9434000C94340060
:100050000C94340011241FBECFE5D8E0DEBFCDBF25
:100060000E9436000C945F000C9400008FEF8ABB56
:1000700040E050E0A1E0B0E068EC70E09A01CD0112
:10008000022E02C0880F991F0A94E2F78BBBA901C8
:100090004F5F5F4F88E893E1FB013197F1F70197DC
:1000A000D9F71BBA88E893E1FB013197F1F7019783
:1000B000D9F720E030E04830510501F7E0CFF8945F
:0200C000FFCF70
:00000001FF
