:100000000C942A000C943F000C943F000C943F0089
:100010000C943F000C943F000C943F000C943F0064
:100020000C943F000C943F000C943F000C943F0054
:100030000C943F000C943F000C943F000C943F0044
:100040000C943F000C943F000C943F000C943F0034
:100050000C943F0011241FBECFE5D8E0DEBFCDBF1A
:1000600010E0A0E6B0E0EEE2F7E002C005900D92ED
:10007000A837B107D9F70E9453000C9495030C944C
:10008000000080E487B982E886B908953A9A369AE2
:100090003699FECF24B130E045B1942F80E0282B73
:1000A000392BC9010895CF92DF92EF92FF920F93FF
:1000B0001F93DF93CF93CDB7DEB72D970FB6F8948C
:1000C000DEBF0FBECDBF80E487B982E886B984B3B6
:1000D0008FEF84BB81B38F6081BB80E00E94F5000D
:1000E0007E010894E11CF11C88ECC82ED12C0E94E2
:1000F00046008C0181E060E00E94CD00D701EBE674
:10010000F0E08DE001900D928150E1F782E060E037
:100110000E940502C7010E942A0181E061E00E945D
:10012000050280E690E00E942A01C80164E070E0C8
:100130000E94A70180ED97E0F6013197F1F7019752
:10014000D9F7D5CF81B3807F81BB959A969881E00E
:100150008A95F1F721E032E0949A822F8A95F1F79F
:1001600080B38295807F922F9A95F1F79498932F80
:100170009A95F1F7949A922F9A95F1F790B3922F5E
:100180009A95F1F79498932F9A95F1F787FDE4CF1C
:10019000959881B38F6081BB0895282F662311F451
:1001A000969801C0969A81E08A95F1F7949A82B365
:1001B000922F92959F70807F982B92BB92E0892F0F
:1001C0008A95F1F79498892F8A95F1F7949A82B3DA
:1001D0002F70807F822B82BB892F8A95F1F79498AC
:1001E0009A95F1F70E94A20008950F931F93182F7C
:1001F00080E69AEE0197F1F781B38F6081BB8C9A0C
:100200008E9A8D9A82B3807F82BB949895989698A7
:1002100085E8982F9A95F1F7949A919A982F9A9544
:10022000F1F794988A95F1F70E94A200812F8C60D3
:1002300060E00E94CD0008EC10E0C8010197F1F7E2
:1002400088E260E00E94CD00C8010197F1F71F919C
:100250000F910895CF93DF93EC0104C061E00E94F9
:10026000CD00219688818823C9F7DF91CF91089529
:100270004F925F926F927F928F929F92AF92BF92B6
:10028000CF92DF92EF92FF920F931F93CF93DF9362
:10029000EB013C018824992488EC482E512C42C063
:1002A000219661E00E94CD00C401B3010E94550275
:1002B0005B016C0120E030E04AEF54E40E94E3026D
:1002C0007B018C0120E030E040E85FE30E942502E2
:1002D00088231CF461E070E022C0C801B70120E06F
:1002E0003FEF4FE757E40E94DF021816A4F4C6015F
:1002F000B50120E030E040E251E40E94E3020E94B8
:10030000290205C0C2010197F1F7615070406115E3
:100310007105C1F707C0C801B7010E942902CB01CE
:100320000197F1F78881882309F0BACFDF91CF9147
:100330001F910F91FF90EF90DF90CF90BF90AF9003
:100340009F908F907F906F905F904F900895EF9265
:10035000FF920F931F93DF93CF9300D000D00F92A3
:10036000CDB7DEB79C018B01FE01319685E0DF0140
:100370001D928A95E9F7FE0135960DC0C9016AE024
:1003800070E00E946E038083C9016AE070E00E9401
:100390006E039B0131972115310581F7BFEF0F3FA8
:1003A0001B0779F420E030E0AE014F5F5F4F02C0E1
:1003B0002F5F3F4FFA01E20FF31F80818823C1F3C3
:1003C00004C025E030E0201B310B7E010894E11CC5
:1003D000F11CE20EF31E890109C0F70181917F0132
:1003E000805D61E00E94CD000F5F1F4F0530110559
:1003F000A4F30F900F900F900F900F90CF91DF917B
:100400001F910F91FF90EF900895DF93CF9300D04D
:1004100000D0CDB7DEB7982F843180F480E889838F
:1004200080EC8A8384E98B8384ED8C83FE01E60F64
:10043000F11D8181890F60E00E94CD000F900F9027
:100440000F900F90CF91DF9108956CD008F481E068
:10045000089594D088F09F5790F0B92F9927B751FD
:10046000A0F0D1F0660F771F881F991F1AF0BA9578
:10047000C9F712C0B13081F09BD0B1E0089598C0A7
:10048000672F782F8827B85F39F0B93FCCF386956E
:1004900077956795B395D9F73EF4909580957095CB
:1004A00061957F4F8F4F9F4F0895E89409C097FB48
:1004B0003EF490958095709561957F4F8F4F9F4F3B
:1004C0009923A9F0F92F96E9BB279395F69587957F
:1004D00077956795B795F111F8CFFAF4BB0F11F442
:1004E00060FF1BC06F5F7F4F8F4F9F4F16C08823E9
:1004F00011F096E911C0772321F09EE8872F762F1F
:1005000005C0662371F096E8862F70E060E02AF05F
:100510009A95660F771F881FDAF7880F969587954B
:1005200097F90895990F0008550FAA0BE0E8FEEF20
:1005300016161706E807F907C0F012161306E407A7
:10054000F50798F0621B730B840B950B39F40A26A0
:1005500061F0232B242B252B21F408950A2609F47E
:10056000A140A6958FEF811D811D089557FD9058DC
:10057000440F551F59F05F3F71F04795880F97FB67
:10058000991F61F09F3F79F0879508951216130621
:100590001406551FF2CF4695F1DF08C01616170650
:1005A0001806991FF1CF8695710561050894089585
:1005B000E894BB2766277727CB0197F90895B2DF28
:1005C00008F48FEF08950BD078C069D028F06ED072
:1005D00018F0952309F05AC05FC01124EACFC6DF96
:1005E000A0F3959FD1F3950F50E0551F629FF00146
:1005F000729FBB27F00DB11D639FAA27F00DB11D9F
:10060000AA1F649F6627B00DA11D661F829F222727
:10061000B00DA11D621F739FB00DA11D621F839FAE
:10062000A00D611D221F749F3327A00D611D231F84
:10063000849F600D211D822F762F6A2F11249F57D2
:1006400050408AF0E1F088234AF0EE0FFF1FBB1FF5
:10065000661F771F881F91505040A9F79E3F510594
:1006600070F014C0A6CF5F3FECF3983EDCF38695A4
:1006700077956795B795F795E7959F5FC1F7FE2B3F
:10068000880F911D9695879597F9089597F99F671B
:1006900080E870E060E008959FEF80EC089500240A
:1006A0000A941616170618060906089500240A94D7
:1006B00012161306140605060895092E0394000C5D
:1006C00011F4882352F0BB0F40F4BF2B11F460FFEC
:1006D00004C06F5F7F4F8F4F9F4F089597FB092E88
:1006E00007260AD077FD04D00CD006D000201AF4DB
:1006F000709561957F4F0895F6F7909581959F4F7E
:100700000895AA1BBB1B51E107C0AA1FBB1FA61758
:10071000B70710F0A61BB70B881F991F5A95A9F7AA
:0E07200080959095BC01CD010895F894FFCF0F
:10072E004144432076616C75653D00416B74617286
:08073E00757A7A616D616E00AD
:00000001FF
