:100000000C942A000C9434000C9434000C943400AA
:100010000C9434000C9434000C9434000C94340090
:100020000C9434000C9434000C9434000C94340080
:100030000C9434000C9434000C9434000C94340070
:100040000C9434000C9434000C9434000C94340060
:100050000C94340011241FBECFE5D8E0DEBFCDBF25
:100060000E9436000C9450000C9400008AB38E6FEE
:100070008ABB28EC30E08BB38E6F8BBB80ED97E0B2
:10008000F9013197F1F70197D9F78BB381708BBBE9
:1000900080ED97E0F9013197F1F70197D9F7EBCFB0
:0400A000F894FFCF02
:00000001FF
