:100000000C942A000C9434000C9434000C943400AA
:100010000C9434000C9434000C9434000C94340090
:100020000C9434000C9434000C9434000C94340080
:100030000C9434000C9434000C9434000C94340070
:100040000C9434000C9434000C9434000C94340060
:100050000C94340011241FBECFE5D8E0DEBFCDBF25
:100060000E9443000C945D000C9400005F9BFECF47
:100070008CB1089585EC89B982E080BD80E18AB9B0
:1000800086E880BD089584B38FEF84BB85EC89B981
:1000900082E080BD80E18AB986E880BD20E931E058
:1000A0005F9BFECF8CB185BB88E893E1F901319766
:0E00B000F1F70197D9F715BAF3CFF894FFCF07
:00000001FF
