:100000000C942A000C9434000C9434000C943400AA
:100010000C9434000C9434000C9434000C94340090
:100020000C9434000C9434000C9434000C94340080
:100030000C9434000C9434000C9434000C94340070
:100040000C9434000C9434000C9434000C94340060
:100050000C94340011241FBECFE5D8E0DEBFCDBF25
:100060000E9436000C945E000C94000084B38A6AEF
:1000700084BB47E050E0A1E0B0E068EC70E025B35D
:10008000CD01042E02C0880F991F0A94E2F7982F21
:10009000282B25BB28EE33E0FB013197F1F72150E7
:1000A0003040D1F785B39095982395BB425050408E
:1000B0001416150624F347E050E0E1CFF894FFCF83
:00000001FF
