:100000000C942A000C943F000C943F000C943F0089
:100010000C943F000C943F000C943F000C943F0064
:100020000C943F000C943F000C943F000C943F0054
:100030000C943F000C943F000C943F000C943F0044
:100040000C943F000C943F000C943F000C943F0034
:100050000C943F0011241FBECFE5D8E0DEBFCDBF1A
:1000600010E0A0E6B0E0E2EFF0E002C005900D92F3
:10007000A436B107D9F70E9465000C9477000C9460
:1000800000005D9BFECF8CB90895FC0104C05D9B10
:10009000FECF8CB9319680818823C9F70895FC0181
:1000A00004C05D9BFECF31968CB980818823C9F74F
:1000B00008955F9BFECF8CB1089583E389B910BC8E
:1000C00088E18AB986E880BD089583E389B910BCC8
:1000D00088E18AB986E880BD5F9BFECF8CB190E055
:1000E0000E944F0080E690E00E944F00F5CFF89408
:0200F000FFCF40
:0400F2000D0A0000F3
:00000001FF
