S00E00006D65676133322E7372656317
S11300000C942A000C943F000C943F000C943F0085
S11300100C943F000C943F000C943F000C943F0060
S11300200C943F000C943F000C943F000C943F0050
S11300300C943F000C943F000C943F000C943F0040
S11300400C943F000C943F000C943F000C943F0030
S11300500C943F0011241FBECFE5D8E0DEBFCDBF16
S113006010E0A0E6B0E0EEEEF0E002C005900D92E4
S1130070A636B107D9F70E9461000C9475000C9460
S1130080000080E487B982E886B908958CB95D9B45
S1130090FECF0895CF93DF93EC018881882331F05C
S11300A021960E94460089918111FBCFDF91CF9167
S11300B0089587E689B910BC88E18AB986E880BDCD
S11300C008950E944100BC9A0E945900C59880E698
S11300D090E00E944A002FEF89E698E12150804089
S11100E09040E1F700C00000F2CFF894FFCF8B
S10900EE4F46460A000023
S9030000FC
