:100000000C942A000C945B000C943F000C943F006D
:100010000C943F000C943F000C943F000C943F0064
:100020000C943F000C943F000C943F000C943F0054
:100030000C943F000C943F000C943F000C943F0044
:100040000C943F000C943F000C943F000C943F0034
:100050000C943F0011241FBECFE5D8E0DEBFCDBF1A
:1000600010E0A0E6B0E0E6E3F2E002C005900D92F9
:10007000A836B107D9F70E946A000C9419010C94B4
:10008000000080E487B982E886B90895399A369AE3
:100090003699FECF24B130E045B1942F80E0282B73
:1000A000392BC9010895789485B7836085BF8BB7D4
:1000B00080648BBF08951F920F920FB60F92112488
:1000C0008F9382B3805882BB8F910F900FBE0F9099
:1000D0001F901895789485B7836085BF8BB780642F
:1000E0008BBF80E487B982E886B984B38FEF84BB85
:1000F00081B3836381BB8F9A97980E94460062E028
:1001000070E00E94F200CB010E94B600F6CFDF93B0
:10011000CF93CDB7DEB728970FB6F894DEBF0FBEEA
:10012000CDBF282FFE013196A0E6B0E088E00D900B
:1001300001928150E1F782B3836382BB65BB92B3C6
:10014000E22FF0E0EE0FFF1FEC0FFD1F81819823DF
:1001500092BB80E29EE40197F1F728960FB6F894DF
:10016000DEBF0FBECDBFCF91DF910895DF92EF923A
:10017000FF920F931F93CF93DF937C0168EE73E0A0
:100180000E94F200D62E03E010E0C1E0D0E001159D
:10019000110511F46D2D0AC0C701BE010E94F200C5
:1001A000CB016AE070E00E94F200682F802F0E946D
:1001B0008700015010408FEF0F3F180759F0CE0114
:1001C000880F991F23E0CC0FDD1F2A95E1F7C80F98
:1001D000D91FDDCFDF91CF911F910F91FF90EF904D
:1001E000DF90089597FB092E07260AD077FD04D0EB
:1001F0000CD006D000201AF4709561957F4F0895B9
:10020000F6F7909581959F4F0895AA1BBB1B51E16E
:1002100007C0AA1FBB1FA617B70710F0A61BB70B76
:10022000881F991F5A95A9F780959095BC01CD011B
:060230000895F894FFCFD1
:08023600FE00FD00EF00DF00F7
:00000001FF
