:100000000C942A000C943C000C943C000C943C0092
:100010000C943C000C943C000C943C000C943C0070
:100020000C943C000C943C000C943C000C943C0060
:100030000C943C000C9461000C943C000C943C002B
:100040000C943C000C943C000C943C000C943C0040
:100050000C943C0011241FBECFE5D8E0DEBFCDBF1D
:1000600010E0A0E6B0E001C01D92A236B107E1F7B2
:100070000E9447000C9472000C94000085E089B93E
:1000800010BC88ED8AB986E080BD78940895B89850
:10009000B99A85E089B910BC88ED8AB986E080BD3F
:1000A0007894C198209160003091610042E091E025
:1000B0002130310529F488B3842788BB9CB9F8CF57
:1000C000FFCF1F920F920FB60F9211248F938CB116
:1000D00080936000109261008F910F900FBE0F907F
:0800E0001F901895F894FFCF62
:00000001FF
