:100000000C942A000C943F000C943F000C943F0089
:100010000C943F000C943F000C943F000C943F0064
:100020000C943F000C943F000C943F000C943F0054
:100030000C943F000C943F000C943F000C943F0044
:100040000C943F000C943F000C943F000C943F0034
:100050000C943F0011241FBECFE5D8E0DEBFCDBF1A
:1000600010E0A0E6B0E0EEEDF0E002C005900D92E9
:10007000A437B107D9F70E9441000C946D000C948D
:100080000000DF93CF93CDB7DEB764970FB6F89437
:10009000DEBF0FBECDBF84B38FEF84BB9E012F5F49
:1000A0003F4F68EC70E0AE014B5E5F4FD901E0E678
:1000B000F0E084E101900D928150E1F7D9018C913B
:1000C00085BB80ED97E0FB013197F1F70197D9F7F8
:0E00D0001496A417B50799F7E9CFF894FFCF5F
:1000DE003F0006005B004F0066006D007C000700CD
:0400EE007F006F0020
:00000001FF
