:100000000C942A000C9434000C9434000C943400AA
:100010000C9434000C9434000C9434000C94340090
:100020000C9434000C9434000C9434000C94340080
:100030000C9434000C9434000C9434000C94340070
:100040000C9434000C9434000C9434000C94340060
:100050000C94340011241FBECFE5D8E0DEBFCDBF25
:100060000E947D000C94AF000C9400009FEF92BBA7
:1000700065BB82BB80E29EE40197F1F70895FC0125
:1000800068EE73E00E9488004FEF42BB65BB8EEFC5
:1000900082BB20E23EE4C9010197F1F7CF0164E69B
:1000A00070E00E948800CB016AE070E00E94880046
:1000B00042BB85BB8DEF82BBC9010197F1F7CF0130
:1000C0006AE070E00E948800CB016AE070E00E9464
:1000D000880042BB85BB8BEF82BBC9010197F1F75A
:1000E000CF016AE070E00E94880042BB85BB87E0D8
:1000F00082BBC9010197F1F7089584B38FEF84BBE8
:1001000081B38F6081BB87E393E00E943F00FBCF08
:1001100097FB092E07260AD077FD04D00CD006D015
:1001200000201AF4709561957F4F0895F6F7909529
:1001300081959F4F0895AA1BBB1B51E107C0AA1FC1
:10014000BB1FA617B70710F0A61BB70B881F991F78
:100150005A95A9F780959095BC01CD010895F89422
:02016000FFCFCF
:00000001FF
