S012000061746D656761323536302E73726563D6
S113000071C0000086C0000084C0000082C00000EF
S113001080C000007EC000007CC000007AC00000E8
S113002078C0000076C0000074C0000072C00000F8
S113003070C000006EC000006CC000006AC0000008
S113004068C0000066C0000064C0000062C0000018
S113005060C000005EC000005CC000005AC0000028
S113006058C0000056C0000054C0000052C0000038
S113007050C000004EC000004CC000004AC0000048
S113008048C0000046C0000044C0000042C0000058
S113009040C000003EC000003CC000003AC0000068
S11300A038C0000036C0000034C0000032C0000078
S11300B030C000002EC000002CC000002AC0000088
S11300C028C0000026C0000024C0000022C0000098
S11300D020C000001EC000001CC000001AC00000A8
S11300E018C0000011241FBECFEFD1E2DEBFCDBF88
S11300F000E00CBF12E0A0E0B2E0E0E9F1E000E0D3
S11301000BBF02C007900D92AA30B107D9F72CD0CB
S11301103DC076CFE0ECF0E0908195FFFDCF809379
S1130120C6000895CF93DF93EC018881882329F0DA
S11301302196F0DF89918111FCCFDF91CF91089551
S1130140E0ECF0E080818823ECF78091C60008950C
S113015087E68093C4001092C50088E18093C100B3
S113016086E08093C200089584B18FEF84B9F0DFF4
S11301702F98E6DF80FF05C02F9A80E092E0D2DF5F
S1130180F8CF2F9884E092E0CDDFF3CFF894FFCF3F
S10D01904F4E0A004F46460A0000D5
S9030000FC
