:100000000C942A000C943F000C943F000C943F0089
:100010000C943F000C943F000C943F000C943F0064
:100020000C943F000C943F000C943F000C943F0054
:100030000C943F000C943F000C943F000C943F0044
:100040000C943F000C943F000C943F000C943F0034
:100050000C943F0011241FBECFE5D8E0DEBFCDBF1A
:1000600010E0A0E6B0E0E8E4F2E002C005900D92F6
:10007000A836B107D9F70E9453000C9422010C94C2
:10008000000080E487B982E886B90895399A369AE3
:100090003699FECF24B130E045B1942F80E0282B73
:1000A000392BC901089580E487B982E886B984B301
:1000B0008FEF84BB81B38F6081BB0E9446000E949A
:1000C0008E00FBCFDF93CF93CDB7DEB728970FB667
:1000D000F894DEBF0FBECDBF982FFE013196A0E68B
:1000E000B0E088E00D9001928150E1F78FEF82BB84
:1000F00065BBE92FF0E0EE0FFF1FEC0FFD1F8181C4
:1001000082BB80E29EE40197F1F728960FB6F8943F
:10011000DEBF0FBECDBFCF91DF9108959F92AF920A
:10012000BF92CF92DF92EF92FF920F931F93DF93D4
:10013000CF93CDB7DEB728970FB6F894DEBF0FBECA
:10014000CDBF7C0168EE73E00E94FB00462F03E008
:1001500010E021E030E06E010894C11CD11C99240C
:100160009A94E0E2AE2EEEE4BE2E0115110511F4D4
:10017000842F09C0C701B9010E94FB00CB016AE0CE
:1001800070E00E94FB00D601E0E6F0E098E001900C
:100190000D929150E1F792BA85BBE02FF0E0EE0F9F
:1001A000FF1FEC0DFD1D808182BBC5010197F1F79A
:1001B000015010408FEF0F3F180759F0C901880F09
:1001C000991F53E0220F331F5A95E1F7280F391F6B
:1001D000CCCF28960FB6F894DEBF0FBECDBFCF911F
:1001E000DF911F910F91FF90EF90DF90CF90BF9024
:1001F000AF909F90089597FB092E07260AD077FDB0
:1002000004D00CD006D000201AF4709561957F4F71
:100210000895F6F7909581959F4F0895AA1BBB1BF3
:1002200051E107C0AA1FBB1FA617B70710F0A61BF6
:10023000B70B881F991F5A95A9F780959095BC0117
:08024000CD010895F894FFCFF1
:08024800FE00FD00FB000700B1
:00000001FF
