S016000041746D65676133325F75736172742E73726563CC
S11300000C942A000C943F000C943F000C943F0085
S11300100C943F000C943F000C943F000C943F0060
S11300200C943F000C943F000C943F000C943F0050
S11300300C943F000C943F000C943F000C943F0040
S11300400C943F000C943F000C943F000C943F0030
S11300500C943F0011241FBECFE5D8E0DEBFCDBF16
S113006010E0A0E6B0E0ECEDF0E002C005900D92E7
S1130070A436B107D9F70E9460000C946C000C946C
S113008000005D9BFECF8CB90895CF93DF93EC0104
S11300908881882331F021960E9441008991811141
S11300A0FBCFDF91CF9108955F9BFECF8CB1089574
S11300B083E389B910BC88E18AB986E880BD0895D4
S11300C00E9458000E94540090E00E94450080E67F
S10F00D090E00E944500F6CFF894FFCFAA
S10700DC0D0A000005
S9030000FC
