:100000000C942A000C9434000C9434000C943400AA
:100010000C9434000C9434000C9434000C94340090
:100020000C9434000C9434000C9434000C94340080
:100030000C9434000C9434000C9434000C94340070
:100040000C9434000C9434000C9434000C94340060
:100050000C94340011241FBECFE5D8E0DEBFCDBF25
:100060000E9443000C9456000C94000085EC89B962
:1000700082E080BD88E08AB986E880BD08958CB9A9
:100080005D9BFECF08950E943600C1E08C2F0E9438
:100090003F002FEF89E698E1215080409040E1F742
:1000A00000C00000CF5FC53189F7EFCFF894FFCFD4
:00000001FF
